{
  "contractName": "BlackJack",
  "abi": [
    {
      "constant": false,
      "inputs": [],
      "name": "get_balance",
      "outputs": [
        {
          "internalType": "uint256",
          "name": "",
          "type": "uint256"
        }
      ],
      "payable": false,
      "stateMutability": "nonpayable",
      "type": "function"
    },
    {
      "constant": false,
      "inputs": [],
      "name": "initialize_game",
      "outputs": [],
      "payable": false,
      "stateMutability": "nonpayable",
      "type": "function"
    },
    {
      "constant": true,
      "inputs": [],
      "name": "get_game",
      "outputs": [
        {
          "components": [
            {
              "internalType": "uint256",
              "name": "bet",
              "type": "uint256"
            },
            {
              "internalType": "uint256",
              "name": "dealer_hidden_card",
              "type": "uint256"
            },
            {
              "internalType": "uint256[]",
              "name": "dealer_showed_cards",
              "type": "uint256[]"
            },
            {
              "internalType": "uint256[]",
              "name": "player_cards",
              "type": "uint256[]"
            },
            {
              "internalType": "bool",
              "name": "is_finish",
              "type": "bool"
            }
          ],
          "internalType": "struct BlackJack.Game",
          "name": "",
          "type": "tuple"
        }
      ],
      "payable": false,
      "stateMutability": "view",
      "type": "function"
    },
    {
      "constant": false,
      "inputs": [
        {
          "internalType": "uint256",
          "name": "value",
          "type": "uint256"
        }
      ],
      "name": "bet",
      "outputs": [],
      "payable": false,
      "stateMutability": "nonpayable",
      "type": "function"
    },
    {
      "constant": false,
      "inputs": [],
      "name": "hit",
      "outputs": [],
      "payable": false,
      "stateMutability": "nonpayable",
      "type": "function"
    },
    {
      "constant": false,
      "inputs": [],
      "name": "stand",
      "outputs": [],
      "payable": false,
      "stateMutability": "nonpayable",
      "type": "function"
    },
    {
      "constant": false,
      "inputs": [],
      "name": "get_result",
      "outputs": [
        {
          "internalType": "uint256",
          "name": "",
          "type": "uint256"
        }
      ],
      "payable": false,
      "stateMutability": "nonpayable",
      "type": "function"
    },
    {
      "constant": true,
      "inputs": [],
      "name": "get_player_score",
      "outputs": [
        {
          "internalType": "uint256",
          "name": "",
          "type": "uint256"
        }
      ],
      "payable": false,
      "stateMutability": "view",
      "type": "function"
    },
    {
      "constant": true,
      "inputs": [],
      "name": "get_dealer_score",
      "outputs": [
        {
          "internalType": "uint256",
          "name": "",
          "type": "uint256"
        }
      ],
      "payable": false,
      "stateMutability": "view",
      "type": "function"
    }
  ],
  "bytecode": "0x60806040526127106000556040518060400160405280601181526020017f4e6f7420656e6f756768206d6f6e657921000000000000000000000000000000815250600190805190602001906200005792919062000240565b506040518060400160405280601781526020017f4163636f756e7420646f6573206e6f742065786973742100000000000000000081525060029080519060200190620000a592919062000240565b506040518060400160405280600a81526020017f706c656173655f6265740000000000000000000000000000000000000000000081525060039080519060200190620000f392919062000240565b506040518060400160405280601881526020017f796f75206861766520616c726561647920627573746564210000000000000000815250600490805190602001906200014192919062000240565b506040518060400160405280601e81526020017f796f75206861766520616c7265616479206d6164652074686520626574210000815250600590805190602001906200018f92919062000240565b506040518060400160405280601981526020017f67616d65206973206e6f742066696e697368656420796574210000000000000081525060069080519060200190620001dd92919062000240565b506040518060400160405280601981526020017f67616d6520697320616c72656164792066696e69736865642100000000000000815250600790805190602001906200022b92919062000240565b503480156200023957600080fd5b50620002ef565b828054600181600116156101000203166002900490600052602060002090601f016020900481019282601f106200028357805160ff1916838001178555620002b4565b82800160010185558215620002b4579182015b82811115620002b357825182559160200191906001019062000296565b5b509050620002c39190620002c7565b5090565b620002ec91905b80821115620002e8576000816000905550600101620002ce565b5090565b90565b611a9b80620002ff6000396000f3fe608060405234801561001057600080fd5b50600436106100935760003560e01c80635f01d94d116100665780635f01d94d146100fc5780637365870b146101065780637d1b397814610122578063c1cfb99a14610140578063c2897b101461015e57610093565b80630c92e42d146100985780632ae3594a146100b6578063354884d9146100c05780634d5fa6f8146100de575b600080fd5b6100a0610168565b6040516100ad9190611985565b60405180910390f35b6100be6102ee565b005b6100c8610535565b6040516100d591906119a7565b60405180910390f35b6100e66106e8565b6040516100f391906119a7565b60405180910390f35b610104610a91565b005b610120600480360361011b91908101906116e8565b610cc0565b005b61012a610f41565b60405161013791906119a7565b60405180910390f35b610148611082565b60405161015591906119a7565b60405180910390f35b6101666111c9565b005b61017061165c565b61017933611415565b6002906101bc576040517f08c379a00000000000000000000000000000000000000000000000000000000081526004016101b39190611943565b60405180910390fd5b50600860003373ffffffffffffffffffffffffffffffffffffffff1673ffffffffffffffffffffffffffffffffffffffff1681526020019081526020016000206002016040518060a001604052908160008201548152602001600182015481526020016002820180548060200260200160405190810160405280929190818152602001828054801561026d57602002820191906000526020600020905b815481526020019060010190808311610259575b50505050508152602001600382018054806020026020016040519081016040528092919081815260200182805480156102c557602002820191906000526020600020905b8154815260200190600101908083116102b1575b505050505081526020016004820160009054906101000a900460ff161515151581525050905090565b6102f733611415565b60029061033a576040517f08c379a00000000000000000000000000000000000000000000000000000000081526004016103319190611943565b60405180910390fd5b506000600860003373ffffffffffffffffffffffffffffffffffffffff1673ffffffffffffffffffffffffffffffffffffffff1681526020019081526020016000206002016000015414156003906103c8576040517f08c379a00000000000000000000000000000000000000000000000000000000081526004016103bf9190611943565b60405180910390fd5b5060156103d3610f41565b1115600490610418576040517f08c379a000000000000000000000000000000000000000000000000000000000815260040161040f9190611943565b60405180910390fd5b50600860003373ffffffffffffffffffffffffffffffffffffffff1673ffffffffffffffffffffffffffffffffffffffff16815260200190815260200160002060020160040160009054906101000a900460ff16156007906104b0576040517f08c379a00000000000000000000000000000000000000000000000000000000081526004016104a79190611943565b60405180910390fd5b506104bb600061146e565b60156104c5610f41565b1115610533576001600860003373ffffffffffffffffffffffffffffffffffffffff1673ffffffffffffffffffffffffffffffffffffffff16815260200190815260200160002060020160040160006101000a81548160ff0219169083151502179055506105316106e8565b505b565b6000606060008090506000809050600860003373ffffffffffffffffffffffffffffffffffffffff1673ffffffffffffffffffffffffffffffffffffffff1681526020019081526020016000206002016002018054806020026020016040519081016040528092919081815260200182805480156105d257602002820191906000526020600020905b8154815260200190600101908083116105be575b5050505050925060008090505b8351811015610642576106048482815181106105f757fe5b602002602001015161156a565b83019250600b61062685838151811061061957fe5b602002602001015161156a565b14156106355781806001019250505b80806001019150506105df565b506000600860003373ffffffffffffffffffffffffffffffffffffffff1673ffffffffffffffffffffffffffffffffffffffff1681526020019081526020016000206002016001015490506106968161156a565b83019250600b6106a58261156a565b14156106b45781806001019250505b5b6015831180156106c55750600082115b156106de57600a830392508180600190039250506106b5565b8294505050505090565b60006106f333611415565b600290610736576040517f08c379a000000000000000000000000000000000000000000000000000000000815260040161072d9190611943565b60405180910390fd5b506000600860003373ffffffffffffffffffffffffffffffffffffffff1673ffffffffffffffffffffffffffffffffffffffff1681526020019081526020016000206002016000015414156003906107c4576040517f08c379a00000000000000000000000000000000000000000000000000000000081526004016107bb9190611943565b60405180910390fd5b50600860003373ffffffffffffffffffffffffffffffffffffffff1673ffffffffffffffffffffffffffffffffffffffff16815260200190815260200160002060020160040160009054906101000a900460ff1660069061085b576040517f08c379a00000000000000000000000000000000000000000000000000000000081526004016108529190611943565b60405180910390fd5b506000610866610f41565b90506000610872610535565b9050601582111561088857600292505050610a8e565b601581111561093457600860003373ffffffffffffffffffffffffffffffffffffffff1673ffffffffffffffffffffffffffffffffffffffff16815260200190815260200160002060020160000154600202600860003373ffffffffffffffffffffffffffffffffffffffff1673ffffffffffffffffffffffffffffffffffffffff16815260200190815260200160002060010160008282540192505081905550600192505050610a8e565b8082111561094757600192505050610a8e565b808210156109f257600860003373ffffffffffffffffffffffffffffffffffffffff1673ffffffffffffffffffffffffffffffffffffffff16815260200190815260200160002060020160000154600202600860003373ffffffffffffffffffffffffffffffffffffffff1673ffffffffffffffffffffffffffffffffffffffff16815260200190815260200160002060010160008282540192505081905550600292505050610a8e565b600860003373ffffffffffffffffffffffffffffffffffffffff1673ffffffffffffffffffffffffffffffffffffffff16815260200190815260200160002060020160000154600860003373ffffffffffffffffffffffffffffffffffffffff1673ffffffffffffffffffffffffffffffffffffffff168152602001908152602001600020600101600082825401925050819055506003925050505b90565b600860003373ffffffffffffffffffffffffffffffffffffffff1673ffffffffffffffffffffffffffffffffffffffff16815260200190815260200160002060020160040160009054906101000a900460ff16600690610b27576040517f08c379a0000000000000000000000000000000000000000000000000000000008152600401610b1e9190611943565b60405180910390fd5b506000600860003373ffffffffffffffffffffffffffffffffffffffff1673ffffffffffffffffffffffffffffffffffffffff168152602001908152602001600020600201600001819055506063600860003373ffffffffffffffffffffffffffffffffffffffff1673ffffffffffffffffffffffffffffffffffffffff16815260200190815260200160002060020160010181905550600860003373ffffffffffffffffffffffffffffffffffffffff1673ffffffffffffffffffffffffffffffffffffffff1681526020019081526020016000206002016002016000610c0f919061168d565b600860003373ffffffffffffffffffffffffffffffffffffffff1673ffffffffffffffffffffffffffffffffffffffff1681526020019081526020016000206002016003016000610c60919061168d565b6000600860003373ffffffffffffffffffffffffffffffffffffffff1673ffffffffffffffffffffffffffffffffffffffff16815260200190815260200160002060020160040160006101000a81548160ff021916908315150217905550565b610cc933611415565b600290610d0c576040517f08c379a0000000000000000000000000000000000000000000000000000000008152600401610d039190611943565b60405180910390fd5b5080600860003373ffffffffffffffffffffffffffffffffffffffff1673ffffffffffffffffffffffffffffffffffffffff168152602001908152602001600020600101541015600190610d96576040517f08c379a0000000000000000000000000000000000000000000000000000000008152600401610d8d9190611943565b60405180910390fd5b506000600860003373ffffffffffffffffffffffffffffffffffffffff1673ffffffffffffffffffffffffffffffffffffffff1681526020019081526020016000206002016000015414600590610e23576040517f08c379a0000000000000000000000000000000000000000000000000000000008152600401610e1a9190611943565b60405180910390fd5b5080600860003373ffffffffffffffffffffffffffffffffffffffff1673ffffffffffffffffffffffffffffffffffffffff1681526020019081526020016000206001016000828254039250508190555080600860003373ffffffffffffffffffffffffffffffffffffffff1673ffffffffffffffffffffffffffffffffffffffff168152602001908152602001600020600201600001600082825401925050819055506000610ed36034611619565b905080600860003373ffffffffffffffffffffffffffffffffffffffff1673ffffffffffffffffffffffffffffffffffffffff16815260200190815260200160002060020160010181905550610f29600161146e565b610f33600061146e565b610f3d600061146e565b5050565b60006060600860003373ffffffffffffffffffffffffffffffffffffffff1673ffffffffffffffffffffffffffffffffffffffff168152602001908152602001600020600201600301805480602002602001604051908101604052809291908181526020018280548015610fd457602002820191906000526020600020905b815481526020019060010190808311610fc0575b505050505090506000809050600080905060008090505b835181101561104e5761101084828151811061100357fe5b602002602001015161156a565b83019250600b61103285838151811061102557fe5b602002602001015161156a565b14156110415781806001019250505b8080600101915050610feb565b505b6015821180156110605750600081115b1561107957600a82039150808060019003915050611050565b81935050505090565b600061108d33611415565b156110dc57600860003373ffffffffffffffffffffffffffffffffffffffff1673ffffffffffffffffffffffffffffffffffffffff1681526020019081526020016000206001015490506111c6565b6001600860003373ffffffffffffffffffffffffffffffffffffffff1673ffffffffffffffffffffffffffffffffffffffff16815260200190815260200160002060000160006101000a81548160ff021916908315150217905550600054600860003373ffffffffffffffffffffffffffffffffffffffff1673ffffffffffffffffffffffffffffffffffffffff16815260200190815260200160002060010181905550600860003373ffffffffffffffffffffffffffffffffffffffff1673ffffffffffffffffffffffffffffffffffffffff1681526020019081526020016000206001015490505b90565b6111d233611415565b600290611215576040517f08c379a000000000000000000000000000000000000000000000000000000000815260040161120c9190611943565b60405180910390fd5b506000600860003373ffffffffffffffffffffffffffffffffffffffff1673ffffffffffffffffffffffffffffffffffffffff1681526020019081526020016000206002016000015414156003906112a3576040517f08c379a000000000000000000000000000000000000000000000000000000000815260040161129a9190611943565b60405180910390fd5b5060156112ae610f41565b11156004906112f3576040517f08c379a00000000000000000000000000000000000000000000000000000000081526004016112ea9190611943565b60405180910390fd5b50600860003373ffffffffffffffffffffffffffffffffffffffff1673ffffffffffffffffffffffffffffffffffffffff16815260200190815260200160002060020160040160009054906101000a900460ff161560079061138b576040517f08c379a00000000000000000000000000000000000000000000000000000000081526004016113829190611943565b60405180910390fd5b505b6011611397610535565b10156113ac576113a7600161146e565b61138d565b6001600860003373ffffffffffffffffffffffffffffffffffffffff1673ffffffffffffffffffffffffffffffffffffffff16815260200190815260200160002060020160040160006101000a81548160ff0219169083151502179055506114126106e8565b50565b6000600860008373ffffffffffffffffffffffffffffffffffffffff1673ffffffffffffffffffffffffffffffffffffffff16815260200190815260200160002060000160009054906101000a900460ff169050919050565b600061147a6034611619565b905081156114f657600860003373ffffffffffffffffffffffffffffffffffffffff1673ffffffffffffffffffffffffffffffffffffffff168152602001908152602001600020600201600201819080600181540180825580915050906001820390600052602060002001600090919290919091505550611566565b600860003373ffffffffffffffffffffffffffffffffffffffff1673ffffffffffffffffffffffffffffffffffffffff1681526020019081526020016000206002016003018190806001815401808255809150509060018203906000526020600020016000909192909190915055505b5050565b600080821015801561157d575060338211155b6115bc576040517f08c379a00000000000000000000000000000000000000000000000000000000081526004016115b390611965565b60405180910390fd5b60006001600d84816115ca57fe5b06019050600060018214156115e257600b905061160f565b600b8214806115f15750600c82145b806115fc5750600d82145b1561160a57600a905061160e565b8190505b5b8092505050919050565b600080444260405160200161162f929190611917565b6040516020818303038152906040528051906020012060001c905082818161165357fe5b06915050919050565b6040518060a00160405280600081526020016000815260200160608152602001606081526020016000151581525090565b50805460008255906000526020600020908101906116ab91906116ae565b50565b6116d091905b808211156116cc5760008160009055506001016116b4565b5090565b90565b6000813590506116e281611a41565b92915050565b6000602082840312156116fa57600080fd5b6000611708848285016116d3565b91505092915050565b600061171d83836118e2565b60208301905092915050565b6000611734826119e7565b61173e81856119ff565b9350611749836119c2565b8060005b8381101561177a5781516117618882611711565b975061176c836119f2565b92505060018101905061174d565b5085935050505092915050565b61179081611a21565b82525050565b6000815460018116600081146117b357600181146117d95761181d565b607f60028304166117c48187611a10565b955060ff19831686526020860193505061181d565b600282046117e78187611a10565b95506117f2856119d2565b60005b82811015611814578154818901526001820191506020810190506117f5565b80880195505050505b505092915050565b6000611832600e83611a10565b91507f696e76616c696420696e707574210000000000000000000000000000000000006000830152602082019050919050565b600060a08301600083015161187d60008601826118e2565b50602083015161189060208601826118e2565b50604083015184820360408601526118a88282611729565b915050606083015184820360608601526118c28282611729565b91505060808301516118d76080860182611787565b508091505092915050565b6118eb81611a2d565b82525050565b6118fa81611a2d565b82525050565b61191161190c82611a2d565b611a37565b82525050565b60006119238285611900565b6020820191506119338284611900565b6020820191508190509392505050565b6000602082019050818103600083015261195d8184611796565b905092915050565b6000602082019050818103600083015261197e81611825565b9050919050565b6000602082019050818103600083015261199f8184611865565b905092915050565b60006020820190506119bc60008301846118f1565b92915050565b6000819050602082019050919050565b60008190508160005260206000209050919050565b600081519050919050565b6000602082019050919050565b600082825260208201905092915050565b600082825260208201905092915050565b60008115159050919050565b6000819050919050565b6000819050919050565b611a4a81611a2d565b8114611a5557600080fd5b5056fea365627a7a7231582077b9bb94fa627d11f65a2803bb179a0e5837207b3558acba4bc763e18025b8926c6578706572696d656e74616cf564736f6c63430005100040",
  "source": "//\"SPDX-License-Identifier:UNLICENSED\r\npragma solidity >=0.5.0 <0.9.0;\r\npragma experimental ABIEncoderV2;\r\n\r\ncontract BlackJack {\r\n    //////////////////////////////////////////\r\n    //Configurable\r\n    //////////////////////////////////////////\r\n    uint initial_balance = 10000; //TODO: configurable\r\n    \r\n    //////////////////////////////////////////\r\n    //Errors\r\n    //////////////////////////////////////////\r\n    string not_enough_money = \"Not enough money!\";\r\n    string account_not_exist = \"Account does not exist!\";\r\n    string please_bet = \"please_bet\";\r\n    string bust = \"you have already busted!\";\r\n    string already_bet = \"you have already made the bet!\";\r\n    string game_not_finish = \"game is not finished yet!\";\r\n    string game_finish = \"game is already finished!\";\r\n\r\n    //////////////////////////////////////////\r\n    //Struct\r\n    //////////////////////////////////////////\r\n    struct Account{\r\n        bool exist;\r\n        uint balance;\r\n        Game game; \r\n    }\r\n    \r\n    struct Game{\r\n        uint bet;\r\n        uint dealer_hidden_card;\r\n        uint[] dealer_showed_cards;\r\n        uint[] player_cards;\r\n        bool is_finish;\r\n    }\r\n    \r\n    //Mapping\r\n    mapping (address => Account) accounts;\r\n    \r\n    //////////////////////////////////////////\r\n    //Function Public, Main Roadmap\r\n    //////////////////////////////////////////\r\n    function get_balance() public returns(uint){ // login/create account\r\n        if (is_account_exist(msg.sender)) {\r\n            return accounts[msg.sender].balance;\r\n        }\r\n        else {\r\n            accounts[msg.sender].exist = true;\r\n            accounts[msg.sender].balance = initial_balance;\r\n            return accounts[msg.sender].balance;\r\n        }\r\n    }\r\n\r\n    function initialize_game() public {\r\n        require(accounts[msg.sender].game.is_finish, game_not_finish);\r\n        accounts[msg.sender].game.bet = 0; //also a way to judge if game has started, if bet = 0 means game is not started\r\n        accounts[msg.sender].game.dealer_hidden_card = 99; //means no card\r\n        delete accounts[msg.sender].game.dealer_showed_cards;\r\n        delete accounts[msg.sender].game.player_cards;\r\n        accounts[msg.sender].game.is_finish = false;\r\n    }\r\n    \r\n    function get_game() public view returns(Game memory) { //get current information of the game\r\n        require(is_account_exist(msg.sender), account_not_exist);\r\n        return accounts[msg.sender].game;\r\n    }\r\n    \r\n    function bet(uint value) public {//player makes his bet, initial cards delievered\r\n        require(is_account_exist(msg.sender), account_not_exist);\r\n        require(accounts[msg.sender].balance >= value, not_enough_money);\r\n        require(accounts[msg.sender].game.bet == 0, already_bet);\r\n        accounts[msg.sender].balance -= value;\r\n        accounts[msg.sender].game.bet += value;\r\n\r\n        //send initial cards\r\n        uint id = rand(52);\r\n        accounts[msg.sender].game.dealer_hidden_card = id;\r\n        new_card(true); //send new card for dealer\r\n        new_card(false);//send new card for player\r\n        new_card(false);\r\n    }\r\n\r\n    function hit() public {\r\n        require(is_account_exist(msg.sender), account_not_exist);\r\n        require(accounts[msg.sender].game.bet!=0, please_bet);\r\n        require(get_player_score()<=21, bust);\r\n        require(!accounts[msg.sender].game.is_finish, game_finish);\r\n        new_card(false);//send new card for player\r\n\r\n        if(get_player_score()>21){ // player bust\r\n            accounts[msg.sender].game.is_finish = true;\r\n            get_result();\r\n        }\r\n    }\r\n\r\n    function stand() public {// player stands, dealer keeps taking cards until soft 17\r\n        require(is_account_exist(msg.sender), account_not_exist);\r\n        require(accounts[msg.sender].game.bet!=0, please_bet);\r\n        require(get_player_score()<=21, bust);\r\n        require(!accounts[msg.sender].game.is_finish, game_finish);\r\n\r\n        while(get_dealer_score()<17){\r\n            new_card(true);//send new card for dealer\r\n        }\r\n        accounts[msg.sender].game.is_finish = true;\r\n        get_result();\r\n    }\r\n\r\n    function get_result() public returns (uint){//1:player wins; 2:dealer wins; 3:tie\r\n        require(is_account_exist(msg.sender), account_not_exist);\r\n        require(accounts[msg.sender].game.bet!=0, please_bet);\r\n        require(accounts[msg.sender].game.is_finish, game_not_finish);\r\n\r\n        uint player = get_player_score();\r\n        uint dealer = get_dealer_score();\r\n\r\n        if(player>21){//player bust\r\n            return 2;\r\n        }\r\n        else if(dealer>21){//dealer bust\r\n            accounts[msg.sender].balance += 2*accounts[msg.sender].game.bet;\r\n            return 1;\r\n        }\r\n        else if(player>dealer){\r\n            return 1;\r\n        }\r\n        else if(player<dealer){\r\n            accounts[msg.sender].balance += 2*accounts[msg.sender].game.bet;\r\n            return 2;\r\n        }\r\n        else {\r\n            accounts[msg.sender].balance += accounts[msg.sender].game.bet;\r\n            return 3;\r\n        }\r\n    }\r\n\r\n    //////////////////////////////////////////\r\n    //Function Public, Get Key Information\r\n    //////////////////////////////////////////\r\n    function get_player_score() public view returns(uint){\r\n        uint[] memory cards = accounts[msg.sender].game.player_cards;\r\n        uint score = 0;\r\n        uint num_ace = 0;\r\n\r\n        for(uint i = 0; i < cards.length; i++) {\r\n            score += id_to_val(cards[i]);\r\n            if (id_to_val(cards[i])==11) num_ace++;\r\n        }\r\n\r\n        //if bust but have Ace, score -10\r\n        while(score>21&&num_ace>0){\r\n            score -= 10;\r\n            num_ace --;\r\n        }\r\n\r\n        return score;\r\n    }\r\n\r\n    function get_dealer_score() public view returns(uint){\r\n        uint[] memory cards;\r\n        uint score = 0;\r\n        uint num_ace = 0;\r\n\r\n        cards = accounts[msg.sender].game.dealer_showed_cards;\r\n        for(uint i = 0; i < cards.length; i++) {\r\n            score += id_to_val(cards[i]);\r\n            if (id_to_val(cards[i])==11) num_ace++;\r\n        }\r\n        uint hidden_card = accounts[msg.sender].game.dealer_hidden_card;\r\n        score += id_to_val(hidden_card);\r\n        if (id_to_val(hidden_card)==11) num_ace++;\r\n\r\n        //if bust but have Ace, score -10\r\n        while(score>21&&num_ace>0){\r\n            score -= 10;\r\n            num_ace --;\r\n        }\r\n\r\n        return score;\r\n    }\r\n    \r\n    //////////////////////////////////////////\r\n    //Function Private\r\n    //////////////////////////////////////////\r\n    function is_account_exist(address _addr) private view returns(bool){\r\n        return accounts[_addr].exist;\r\n    }\r\n\r\n    function rand(uint256 _length) private view returns(uint256) {\r\n        uint256 random = uint256(keccak256(abi.encodePacked(block.difficulty, block.timestamp)));\r\n        return random%_length;\r\n    }\r\n\r\n    function new_card(bool is_dealer) private {\r\n        uint id = rand(52);\r\n        if (is_dealer){\r\n            accounts[msg.sender].game.dealer_showed_cards.push(id);\r\n        }\r\n        else{\r\n            accounts[msg.sender].game.player_cards.push(id);\r\n        }\r\n    }\r\n\r\n    function id_to_val(uint card_id) pure private returns (uint){\r\n        require(card_id>=0&&card_id<=51, \"invalid input!\");\r\n        uint card_val = card_id%13+1;\r\n        uint val;\r\n        if(card_val==1) val = 11;\r\n        else if(card_val==11||card_val==12||card_val==13) val = 10;\r\n        else val = card_val;\r\n        return val;\r\n    }\r\n\r\n\r\n}\r\n",
  "sourcePath": "C:\\Users\\weizi\\UZH\\master 2nd\\block chain\\project\\DappBlackJack\\contracts\\BlackJacks.sol",
  "compiler": {
    "name": "solc",
    "version": "0.5.16+commit.9c3226ce.Emscripten.clang"
  },
  "schemaVersion": "3.4.7",
  "updatedAt": "2022-05-11T17:59:33.203Z",
  "devdoc": {
    "methods": {}
  },
  "userdoc": {
    "methods": {
      "get_balance()": {
        "notice": "///////////////////////////////////////"
      },
      "get_player_score()": {
        "notice": "///////////////////////////////////////"
      }
    }
  }
}